:100000000C942A000C9447000C9447000C94470071
:100010000C9447000C9447000C942F020C9447005A
:100020000C9447000C9447000C9447000C94470034
:100030000C9447000C9447000C9447000C94470024
:100040000C9447000C9447000C9447000C94470014
:100050000C94470011241FBECFE5D8E0DEBFCDBF12
:1000600010E0A0E6B0E0E0ECF8E002C005900D92F0
:10007000A236B107D9F710E0A2E6B0E001C01D92A8
:10008000A836B107E1F70E94B1030C945E040C940A
:10009000000082E065E040E00E946201089582E095
:1000A00065E041E00E946201089582E065E041E080
:1000B0000E94620180E197E220E931E0F901319785
:1000C000F1F70197D9F782E065E040E00E94620114
:1000D000089582E065E041E00E94EE0082E065E084
:1000E00040E00E9462010895813071F0813018F083
:1000F0008230F9F414C080E062E040E00E946201C6
:1001000080E064E041E008C080E062E041E00E94FD
:10011000620180E064E040E00E946201089580E0B6
:1001200062E040E00E94620180E064E040E00E9402
:1001300062010895813071F0813018F08230F9F455
:1001400014C080E060E040E00E94620180E061E075
:1001500041E008C080E060E041E00E94620180E090
:1001600061E040E00E946201089580E060E040E0CC
:100170000E94620180E061E040E00E946201089517
:1001800080E060E041E00E94EE0080E061E041E05C
:100190000E94EE0080E062E041E00E94EE0080E01C
:1001A00064E041E00E94EE0080E060E040E00E94F8
:1001B000620180E061E040E00E94620180E062E074
:1001C00040E00E94620180E064E040E00E94620141
:1001D0000E94D80384E60E94DD030895683008F089
:1001E00070C08B3008F06DC0813009F1813030F083
:1001F0008230B1F1833009F064C04BC0413059F412
:100200002AB381E090E002C0880F991F6A95E2F757
:10021000282B2ABB08952AB381E090E002C0880F02
:10022000991F6A95E2F7809582238ABB0895413031
:1002300059F427B381E090E002C0880F991F6A95B6
:10024000E2F7282B27BB089527B381E090E002C096
:10025000880F991F6A95E2F78095822387BB0895DE
:10026000413059F424B381E090E002C0880F991F17
:100270006A95E2F7282B24BB089524B381E090E02F
:1002800002C0880F991F6A95E2F78095822384BB8C
:100290000895413059F421B381E090E002C0880F05
:1002A000991F6A95E2F7282B21BB089521B381E0BD
:1002B00090E002C0880F991F6A95E2F7809582232B
:1002C00081BB0895683008F070C08B3008F06DC0B5
:1002D000813009F1813030F08230B1F1833009F0A2
:1002E00064C04BC0413059F42BB381E090E002C0B0
:1002F000880F991F6A95E2F7282B2BBB08952BB323
:1003000081E090E002C0880F991F6A95E2F780951E
:1003100082238BBB0895413059F428B381E090E0EB
:1003200002C0880F991F6A95E2F7282B28BB089511
:1003300028B381E090E002C0880F991F6A95E2F728
:100340008095822388BB0895413059F425B381E01C
:1003500090E002C0880F991F6A95E2F7282B25BB11
:10036000089525B381E090E002C0880F991F6A9537
:10037000E2F78095822385BB0895413059F422B37A
:1003800081E090E002C0880F991F6A95E2F7282B60
:1003900022BB089522B381E090E002C0880F991F2C
:1003A0006A95E2F78095822382BB08956830D0F485
:1003B0008B30C0F4813049F0813028F0823039F040
:1003C000833081F406C089B305C086B303C083B30C
:1003D00001C080B390E002C0959587956A95E2F7D9
:1003E0008170089580E008958B3080F4813049F069
:1003F000813028F0823039F0833041F406C06ABB86
:10040000089567BB089564BB089561BB08958B3060
:1004100080F4813049F0813028F0823039F0833027
:1004200041F406C06BBB089568BB089565BB089591
:1004300062BB08958B3088F4813049F0813028F018
:10044000823039F0833049F406C089B3089586B309
:10045000089583B3089580B3089580E008951F92AE
:100460000F920FB60F9211242F933F934F935F93E8
:100470006F937F938F939F93AF93BF93EF93FF936C
:10048000E0916200F0916300309709F00995FF91C7
:10049000EF91BF91AF919F918F917F916F915F91FC
:1004A0004F913F912F910F900FBE0F901F90189575
:1004B000909363008093620008959EB58295880FA3
:1004C000880F807C9F7B982B9EBD089526B537B5FD
:1004D000C90108951DBC1CBC08951FBC1EBC1DBCD9
:1004E0001CBC17BC16BC89B78F7D89BF0895FC0161
:1004F0008CE08FBD8EB5887F9181892B8EBD9EB596
:1005000080818295880F880F807C9F7B892B8EBD90
:1005100083E066E040E00E94EE001DBC1CBC17BCFE
:1005200016BC80E289BF08950E94DD03089582E031
:100530000E949A0082E00E947400089580E00E9468
:100540009A0081E00E947400089581E00E949A0060
:1005500080E00E947400089580E00E949A0080E08C
:100560000E947400089581E00E949A0081E00E9438
:10057000740008950E94C0000895809164008F5F08
:1005800080936400813031F40E946A0280E00E940E
:100590005D020895823059F40E94660290936600CD
:1005A000809365000E946A0281E00E945D020895C6
:1005B00081E065E041E00E9462018AE38A95F1F7FB
:1005C00081E065E040E00E94620108950E94D80247
:1005D000109264001092660010926500FFCF80E6D2
:1005E00090E00E9477028DEB92E00E94580281E039
:1005F00065E041E00E94EE0008953E9A3F9886E84B
:1006000086B9089597B1907E97B997B1982B97B90D
:10061000369A349BFECF349A24B135B1C90108957E
:100620000E9414048A3409F479C08B3488F4873426
:1006300081F1883430F4823419F1863409F08EC0A7
:100640001CC0883409F453C0893409F087C038C00D
:10065000833509F483C0843530F48C34A1F08235BD
:1006600009F07CC013C0863709F472C0873709F4DB
:1006700072C0863509F072C068C00E94B302089546
:100680000E94AC0208950E94A50208950E949E0255
:1006900008950E94A50284EF91E020E931E0F9017C
:1006A0003197F1F70197D9F70E94B30284EF91E0F7
:1006B00020E931E0F9013197F1F70197D9F7089571
:1006C0000E949E0284EF91E020E931E0F901319728
:1006D000F1F70197D9F70E94B30284EF91E020E986
:1006E00031E0F9013197F1F70197D9F708950E94A8
:1006F000A50284EF91E020E931E0F9013197F1F7AB
:100700000197D9F70E94AC0284EF91E020E931E033
:10071000F9013197F1F70197D9F708950E949E02E8
:1007200084EF91E020E931E0F9013197F1F7019789
:10073000D9F70E94AC0284EF91E020E931E0F901A1
:100740003197F1F70197D9F708950E944F00089566
:100750000E94490008958093670008950E949702BF
:10076000089560E875E280E090E00E94F6030E9440
:10077000BA020E9469000E941404809367000E94DC
:100780001003FDCF0E94180408950E9410040895DC
:100790000E941404089560E875E280E090E00E94F1
:1007A000F60308950E94F40308950E94EF0308954C
:1007B0001CBEBB9A8AE683BF08959FEF899FC00144
:1007C0001124AA2797FDA095BA2FBC01CD0124E6DC
:1007D00030E040E050E00E943C042CBF089513BC80
:1007E0008F9A8EE685BD089583BD08959B01AC0167
:1007F00082E08BB988E18AB986E880BD83E0220F68
:10080000331F441F551F8A95D1F760E074E284EFCF
:1008100090E00E943C042150304030BD29B9089539
:100820005D9BFECF8CB908955F9BFECF8CB1089580
:1008300020E004C05D9BFECFECB92F5FFC01E20F0E
:10084000F11DE081EE23B1F70895DC015F9BFECF3F
:100850008CB18C9390E008C09F5F5F9BFECF8CB102
:10086000FD01E90FF11D8083FD01E90FF11D80817C
:10087000833291F710820895A1E21A2EAA1BBB1BA6
:10088000FD010DC0AA1FBB1FEE1FFF1FA217B3075C
:10089000E407F50720F0A21BB30BE40BF50B661F72
:1008A000771F881F991F1A9469F760957095809536
:1008B00090959B01AC01BD01CF010895F894FFCF45
:0208C000010233
:00000001FF
